:020000040000FA
:040000002AEF3FF0B4
:107E540000012DEF3FF0000E936E010E926E000EA6
:107E6400816E010E806E0F0EC16E80A43CEF3FF058
:107E74003EEF3FF0FEEF3FF08180100E026E390EB0
:107E8400016E0E0EE82EFED7012EFCD7022EFAD775
:107E94008182100E026E390E016E0E0EE82EFED790
:107EA400012EFCD7022EFAD78184100E026E390EF1
:107EB400016E0E0EE82EFED7012EFCD7022EFAD745
:107EC4008186100E026E390E016E0E0EE82EFED75C
:107ED400012EFCD7022EFAD78188100E026E390EBD
:107EE400016E0E0EE82EFED7012EFCD7022EFAD715
:107EF400818A100E026E390E016E0E0EE82EFED728
:107F0400012EFCD7022EFAD7818C100E026E390E88
:107F1400016E0E0EE82EFED7012EFCD7022EFAD7E4
:107F2400818E100E026E390E016E0E0EE82EFED7F3
:107F3400012EFCD7022EFAD78190100E026E390E54
:107F4400016E0E0EE82EFED7012EFCD7022EFAD7B4
:107F54008192100E026E390E016E0E0EE82EFED7BF
:107F6400012EFCD7022EFAD78194100E026E390E20
:107F7400016E0E0EE82EFED7012EFCD7022EFAD784
:107F84008196100E026E390E016E0E0EE82EFED78B
:107F9400012EFCD7022EFAD78198100E026E390EEC
:107FA400016E0E0EE82EFED7012EFCD7022EFAD754
:107FB400819A100E026E390E016E0E0EE82EFED757
:107FC400012EFCD7022EFAD7819C100E026E390EB8
:107FD400016E0E0EE82EFED7012EFCD7022EFAD724
:107FE400819E100E026E390E016E0E0EE82EFED723
:0C7FF400012EFCD7022EFAD700EF00F09F
:020000040020DA
:08000000FFFFFFFFFFFFFFFF00
:020000040030CA
:0E00000000051F1FFF8385FF0FC00FE00F409C
:00000001FF
